:1000000002000375815F7590FF75A0FFD2B0D2B179
:1000100012038E7544001202E2D20720071C30A0A2
:1000200009120411B4FF1C02001BE5447006120201
:100030008A02001B1201C602001B20A0FD12028AC8
:1000400002001BC0E01204A5D0E0F530E5447008C2
:10005000E53012031102001B30010DC201E530B47E
:100060000F0612030602001BE544B40218E530B483
:10007000040874E81203A702001BB4060874E9120E
:1000800003A702001BE530B40E08120339D20102A7
:10009000001BB40A005057E544B40207E530B4022F
:1000A000005033300506BF000302001BBF020302ED
:1000B000001B300303120341E544B40207E530128C
:1000C00004BC8005E5301204E920000DD204E530BF
:1000D0001203A702001B02001BE541B404028003C7
:1000E000B40805E5301203A71203BF02001BE53078
:1000F000B40F3130030302001BEFB40103300421BD
:1001000074E71203A7D203D20620000F7541001234
:10011000054F2000061203C902001B1203BF020094
:100120001B02001BB40E0040030201B7E544B403F8
:1001300019E530B40A028012B40B02800DB40C022F
:100140008008B40D0280030201B712036930000376
:1001500002001BE544B4010EE530C39409FEEE2411
:10016000BF1203A78054B4020EE530B40D3D7E08E3
:1001700074C71203A7804AE530B40A097E0974C81F
:100180001203A7803CB40B097E0A74C91203A7802E
:1001900029B40C097E0B74CA1203A78024B40DA7DE
:1001A0001202E274CB1203A702001BC39405FEEEF9
:1001B00024BF1203A7800302001B7F01C2040200B8
:1001C0001B7F0202001B30A0FD1204B33006061292
:1001D0000339D20122EFB402127E007F00EA4B60A5
:1001E00005D204020284C204020284BF0146E5442F
:1001F000B40215E546602D1546C3ED13FDE54670C6
:1002000005C20402027D806E8C318D32E5314532AB
:1002100060121202A7AC31AD32EC4D7005C204027F
:10022000027D80527E007F00EA4B6004D20480543D
:10023000C2048050BF0052200524E544B4020CE5FE
:100240004560461545C3EB13FB802B8A318B32E5A5
:1002500031453260341202A7AA31AB328018C20590
:10026000C202C2047A007B00753500753600754500
:100270000074EB0203A774EA1203A7800C74ED125A
:1002800003A7800574EE1203A72230A0FD1204B369
:10029000200707D20774EC0203A7C20775440012B7
:1002A00002E274E00203A77533007534007536006E
:1002B0007910C3E53233F532E53133F531E53633C4
:1002C000F536C3E53433F534E53333F533E536C37A
:1002D000940A4005F536433401D9D7853331853446
:1002E00032227A007B007C007D007E007F00754119
:1002F00000754500754600C200C201C202C203C2B9
:1003000004C205C206227544001202E274E502032B
:10031000A7B401087544017530E18014B402087572
:1003200044027530E28009B4030E7544037530E36E
:100330001202E2E5300203A7221202E274E4020391
:10034000A70203393003217C007D007E007F007509
:100350003500753600754100754600C200C203C203
:1003600006D20574E61203A722200021200317BF3E
:100370000206EEB408088015BF011230040F120502
:100380004F200006D203120344221203BF225389D6
:100390000F43892053877F758DFD758BFD759850B0
:1003A000C299C298D28E22F547C299F5993099FD2B
:1003B000C2993098FDE599C298B406F6E5472274D3
:1003C000D21203A7E5410203A7E544B4020974D1A0
:1003D0001203A7EB0203A7EEB4042074D31203A701
:1003E0007400300201041203A7EA1203A7EB120300
:1003F000A7E5351203A7E5360203A774D01203A7B9
:100400007400300201041203A7EA1203A7EB0203EF
:10041000A77590F0E59054F0B4F00374FF22120435
:10042000B37590F0E59054F0B4F00374FF2275902A
:10043000FEE59030E44230E54230E64230E7547564
:1004400090FDE59030E43A30E53A30E63A30E74660
:100450007590FBE59030E43230E53230E63230E73B
:10046000387590F7E59030E43630E50930E6333002
:10047000E72A74FF2274002274012274022274039A
:10048000227404227405227406227407227408223E
:10049000740922740A22740B22740C22740D2274C3
:1004A0000E22740F227590F0E59054F0B4F0F6121D
:1004B00004B322781479FFD9FED8FA22F530BF00B0
:1004C00011E545B40800501BEB234530FB7A0005CD
:1004D0004522E546B40800500AED234530FD7C0076
:1004E000054622754108020754F530BF001C8A31C9
:1004F0008B321205264052E5322530F532E5313493
:10050000004046F531AA31AB32228C318D321205D2
:10051000264036E5322530F532E5313400402AF503
:1005200031AC31AD3222E53275F00AA4F53285F0F6
:1005300036E53175F00AA4F531E5F0700AE53125AC
:1005400036F5314002C322D322754104020754EE2E
:10055000600EB40C0050091475F003A4900561738B
:10056000220205820205AF0205DE02064F0206BD29
:100570000206C30206C90206CF0206D50206DF0242
:10058000070B20020CEB2DFBEA3CFA500302074854
:1005900022ECC39A40117005EDC39B400AC3ED9B4A
:1005A000FBEC9AFAC20222C3EB9DFBEA9CFA2220E2
:1005B0000220EAC39C40117005EBC39D400AC3EBC7
:1005C0009DFBEA9CFAC20222C3ED9BFBEC9AFAD295
:1005D0000222EB2DFBEA3CFA5003020748228B373C
:1005E0008A38753900753A008D3F8C40753B00752F
:1005F0003C00753D00753E007810E53F54016019E0
:10060000C3E53B2537F53BE53C3538F53CE53D3565
:1006100039F53DE53E353AF53EC3E53733F537E587
:100620003833F538E53933F539E53A33F53AC3E58A
:100630004013F540E53F13F53FD8BFE53D453E602B
:1006400003020748AA3CAB3BEA4B7002C20222EC11
:100650004D700302074E8A318B32753300753400BA
:100660007535007536007810C3E53233F532E53163
:1006700033F531E53633F536E53533F5357542007A
:100680005003754201C3E53433F534E53333F533B4
:10069000E542700EE535C39C40167006E536C39DF5
:1006A000400EC3E5369DF536E5359CF535433401FE
:1006B000D8B6AA33AB34EA4B7002C20222EB5DFB20
:1006C0007A0022EB4DFB7A0022EB6DFB7A0022EBE5
:1006D000F4FB7A0022EAFCEBFDC2021205DE22ECFA
:1006E0004D70057A007B01228A488B49EC4D1460DD
:1006F00019ED70011C1DC004C005AC48AD491205C0
:10070000DED005D00420000280E2228A488B49E531
:1007100048454970057A007B0022780008E888F097
:10072000A4ACF0FDC3E5499DE5489C400CE5486C50
:1007300070EAE5496D70E58008187A00E8FBC202AE
:10074000227A00E8FBC2022275410102075475417A
:0707500003020754D200224E
:00000001FF
