:1000000002000375815F7590FF75A0FFD2B0D2B179
:100010001202F475440012025030A009120385B494
:10002000FF09020019120199020019C0E012041917
:10003000D0E0F530E5447008E53012027B0200198B
:1000400030010DC201E530B40F0612027002001932
:10005000E544B40218E530B4040874E812030D0254
:100060000019B4060874E912030D020019E530B452
:100070000E081202A3D201020019B40A00504EE584
:1000800044B40207E530B40200502ABF0203020064
:10009000193003031202ABE544B40207E530120441
:1000A000308005E53012045D20000DD204E53012E9
:1000B000030D020019020019E541B404028003B4E3
:1000C0000805E53012030D120325020019E530B4CE
:1000D0000F2530030302001974E712030D200011ED
:1000E0007541001204C320000812032FD20302003E
:1000F00019120325020019B40E00400302018AE51B
:1001000044B40319E530B40A028012B40B02800D26
:10011000B40C028008B40D02800302018A1202CFDF
:10012000300003020019E544B4010EE530C3940920
:10013000FEEE24BF12030D8054B4020EE530B40D60
:100140003D7E0874C712030D804AE530B40A097E6B
:100150000974C812030D803CB40B097E0A74C912DD
:10016000030D8029B40C097E0B74CA12030D802480
:10017000B40DA712025074CB12030D020019C394E0
:1001800005FEEE24BF12030D80030200197F01C299
:10019000040200197F0202001930A0FD120427EFAB
:1001A000B402107E007F00EA4B6004D2048060C27B
:1001B00004805CBF0134E544B4020CE546601B15C5
:1001C00046C3ED13FD80488C318D32E531453260F8
:1001D00009120215AC31AD3280357E007F00EA4B4A
:1001E0006004D2048029C2048025BF0027E544B4FE
:1001F000020CE545601E1545C3EB13FB80118A31E7
:100200008B32E5314532600C120215AA31AB3274E3
:10021000EA12030D2275330075340075360079102B
:10022000C3E53233F532E53133F531E53633F536B2
:10023000C3E53433F534E53333F533E536C3940A97
:100240004005F536433401D9D78533318534322220
:100250007A007B007C007D007E007F007541007588
:100260004500754600C200C201C202C203C2042298
:1002700075440012025074E502030DB40108754480
:10028000017530E18014B402087544027530E280D3
:1002900009B4030E7544037530E3120250E53002D1
:1002A000030D2212025074E402030D0202A3300374
:1002B0001D7C007D007E007F007535007536007561
:1002C0004100754600C200C20374E612030D2220ED
:1002D0000021200317BF0206EEB408088015BF01F5
:1002E0001230040F1204C3200006D2031202AE2201
:1002F0001203252253890F43892053877F758DFD73
:10030000758BFD759850C299C298D28E22F547C25E
:1003100099F5993099FDC2993098FDE599C298B444
:1003200006F6E5472274D212030DE54102030DE5FE
:1003300044B4020974D112030DEB02030DEEB404B0
:100340002EE5354536602874D312030D7400300253
:10035000010412030DEA12030DEB12030DE5351231
:10036000030DE53612030DEC12030DED02030D74BF
:10037000D012030D74003002010412030DEA1203BF
:100380000DEB02030D7590F0E59054F0B4F003749A
:10039000FF221204277590F0E59054F0B4F0037436
:1003A000FF227590FEE59030E44230E54230E642AF
:1003B00030E7547590FDE59030E43A30E53A30E6A8
:1003C0003A30E7467590FBE59030E43230E5323064
:1003D000E63230E7387590F7E59030E43630E509DD
:1003E00030E63330E72A74FF22740022740122744D
:1003F00002227403227404227405227406227407F4
:1004000022740822740922740A22740B22740C22AA
:10041000740D22740E22740F227590F0E59054F042
:10042000B4F0F612042722781479FFD9FED8FA2204
:10043000F530BF0011E545B40800501BEB234530F3
:10044000FB7A00054522E546B40800500AED234535
:1004500030FD7C000546227541080206C8F530BF14
:10046000001C8A318B3212049A4052E5322530F555
:1004700032E53134004046F531AA31AB32228C31BD
:100480008D3212049A4036E5322530F532E53134AA
:1004900000402AF531AC31AD3222E53275F00AA4C4
:1004A000F53285F036E53175F00AA4F531E5F070E6
:1004B0000AE5312536F5314002C322D322754104C5
:1004C0000206C8EE600EB40C0050091475F003A4C7
:1004D0009004D573220204F6020523020552020598
:1004E000C302063102063702063D020643020649F0
:1004F00002065302067F20020CEB2DFBEA3CFA5069
:10050000030206BC22ECC39A40117005EDC39B4068
:100510000AC3ED9BFBEC9AFAC20222C3EB9DFBEAF5
:100520009CFA22200220EAC39C40117005EBC39D77
:10053000400AC3EB9DFBEA9CFAC20222C3ED9BFB7F
:10054000EC9AFAD20222EB2DFBEA3CFA50030206A7
:10055000BC228B378A38753900753A008D3F8C4044
:10056000753B00753C00753D00753E007810E53F19
:1005700054016019C3E53B2537F53BE53C3538F5BB
:100580003CE53D3539F53DE53E353AF53EC3E537C9
:1005900033F537E53833F538E53933F539E53A33AE
:1005A000F53AC3E54013F540E53F13F53FD8BFE505
:1005B0003D453E60030206BCAA3CAB3BEA4B7002E1
:1005C000C20222EC4D70030206C28A318B327533AF
:1005D000007534007535007536007810C3E5323388
:1005E000F532E53133F531E53633F536E53533F5BA
:1005F000357542005003754201C3E53433F534E5E7
:100600003333F533E542700EE535C39C4016700672
:10061000E536C39D400EC3E5369DF536E5359CF5C0
:1006200035433401D8B6AA33AB34EA4B7002C20268
:1006300022EB5DFB7A0022EB4DFB7A0022EB6DFB97
:100640007A0022EBF4FB7A0022EAFCEBFDC20212F4
:10065000055222EC4D70057A007B01228A488B49B5
:10066000EC4D146019ED70011C1DC004C005AC48B0
:10067000AD49120552D005D00420000280E2228A42
:10068000488B49E548454970057A007B002278008F
:1006900008E888F0A4ACF0FDC3E5499DE5489C401E
:1006A0000CE5486C70EAE5496D70E58008187A0041
:1006B000E8FBC202227A00E8FBC202227541010275
:0B06C00006C87541030206C8D20022E4
:00000001FF
