:1000000002000375815F759000D2B0D2B175A00077
:10001000753100755500755680C200C201C202C21A
:1000200003C204C205C2061202E112071E1206B57F
:100030001202D220980E3004FA12075C2098F412B3
:10004000037980EF1202FAF530B40A00502224300E
:10005000F530E531B4020AC201E53012045602005F
:1000600033C201755401E5301206E0055602003333
:10007000E530B4E006120310020033B4E109753133
:1000800001120354020033B4E20975310212035421
:10009000020033B4E309753103120354020033B490
:1000A000E406120354020033B4E50612032C0200E6
:1000B00033B4E6061203C4020033B4E721D206C209
:1000C00001743DF530E531B40207E5301204568085
:1000D00007E5301206E00556120717020033B4E8B0
:1000E0000612048A020033B4E90612049D020033AA
:1000F000B4CB08C2041203FD020033B4EC061202B2
:10010000D2020033B4EA0B20060512023AC2010201
:100110000033B4EB0920060312028E020033B4ED63
:100120000812023AD201020033B4EE0812023AC2B7
:1001300001020033B4D00AC201C2041204F3020067
:1001400033B4D10FC201C2041202FAF533120559B9
:10015000020033B4D20DC201C2041202FA12052900
:10016000020033B4D30AC201C204120509020033EB
:10017000E530B4C0028035B4C1028030B4C2028020
:100180002BB4C3028026B4C4028021B4C502801CF3
:10019000B4C6028017B4C7028012B4C802800DB47E
:1001A000C9028008B4CA028003020033E530B4C833
:1001B00019C201755402745E1206E074321206E030
:1001C00005560556120717020033B4C90885303AA0
:1001D00075305E8021B4CA12C20175540174761262
:1001E00006E0055612071702003385303AC394C063
:1001F00090077593F530755401300118E531B4025C
:1002000007E530120479802174101206DCE5301203
:1002100006E08015D201E531B40207E5301204563C
:100220008007E5301206E00556E53AB4C706120726
:1002300017020033120710020033E531B4022EE535
:10024000526048155212024D1204B0803EC201E5C0
:10025000526019142440F8E6B42602800DB47C02E2
:100260008008B45E028003B42102D2012285543A90
:100270001202BC755401E53AB4020D300507E5568B
:10028000B4830280031202BC755401020710C2013C
:10029000C205E531B4020912044F1204B00207107E
:1002A00074801206DC780374201206E0D8F97556C3
:1002B0008075540174801206DC020710E556B48084
:1002C000012214F5561206DC74201206E0E55602EF
:1002D00006DCC201C203C204C205C20674080206DB
:1002E000DC53890F43892053877F758DFD758BFD06
:1002F000759850C299C298D28E223098FDE599C265
:1003000098F530C2997599063099FDC299E5302269
:1003100075310012071774011206DC74C51206DC71
:1003200090077D1206F112074302032C753100C2BB
:1003300001C204C205C20612044F1207177401124B
:1003400006DC9007871206F174C01206DC9007974E
:100350001206F122E53160D4C201C205C2061204C0
:100360004F74011206DC755500755680D2041203D5
:100370007974801206DC020710740C1206DCE53179
:10038000B401059007CB800BB402059007EB800306
:1003900090080BE5822555F582E5833400F58374DA
:1003A000C01206DC7810E4931206E0A3D8F81555C5
:1003B000E555540FF555E5561206DC300305740F6C
:1003C0001206DC22C201D205C20675540174011264
:1003D00006DCE531B4021512044F74411204567460
:1003E0004E120456745312045602071074801206FB
:1003F000DC9007831206F1755683020710C202C211
:100400000412071774011206DC74801206DC9008CF
:10041000701206F175574A75594B12042E12075C7B
:10042000209805D559F480ECD2021203542290088A
:100430007EE5822557F582E5833400F58374C0128A
:1004400006DC7810E4931206E0A3D8F8155722755D
:10045000520075530022F530E552B4120122784063
:1004600028F8E530F60552E552C3941040066004C2
:10047000F553803C7553008037F530E552600A141F
:100480002440F8E530F61204B022E531B40220E54C
:1004900052C39410401960177553008013E531B4AE
:1004A000020DE552C3941040066004F5538001220A
:1004B00074801206DC7840E55328F8E552C3955362
:1004C000F9B410028004400279108930E96007E62F
:1004D0001206E008D9F97410C39530F9E960077481
:1004E000201206E0D9F9E530B41001142480F55645
:1004F0000206DC1202FAC2006002D2001202FAF511
:10050000321202FAF5330205861202FAC2006002C4
:10051000D2001202FAF5321202FAF5331202FAF59B
:100520003B1202FAF53C0205E9F5301207171206F4
:10053000FCE530B4010590082B801BB4030590083E
:100540003A8013B40405900849800BB4080590085C
:100550005A800390086A0206F112071774C0120647
:10056000DC780874201206E0D8F985333A7808E57B
:100570003A548060047431800274301206E0E53A27
:1005800023F53AD8EA22120717853234853335E548
:10059000344535701474C01206DC780F74201206CE
:1005A000E0D8F974301206E0227800120678243080
:1005B000C0E008E534453570F28839E830000104C0
:1005C000F5F07410C395F0F974C01206DCE9600709
:1005D00074201206E0D9F9300005742D1206E0A847
:1005E00039D0E01206E0D8F9221207178532348597
:1005F000333512063EF53F853B34853C3512063EC9
:10060000253F04F53F300002053F7410C3953FF8C5
:1006100074C01206DCE8600774201206E0D8F930D6
:100620000005742D1206E0853234853335120655E7
:1006300074521206E0853B34853C35020655E5349C
:1006400045357003740122780012067808E53445B8
:100650003570F6E822E5344535700574300206E061
:1006600078001206782430C0E008E534453570F291
:10067000D0E01206E0D8F9227536007537007538DB
:10068000007910C3E53533F535E53433F534E53815
:1006900033F538C3E53733F537E53633F536E53826
:1006A000C3940A4005F538433701D9D785363485D8
:1006B0003735E5382274301206DC120732743012F6
:1006C00006DC74301206DC74381206DC740C120678
:1006D000DC74061206DC74011206DC22C2A0800261
:1006E000D2A0F590C2A1D2A212072FC2A212073245
:1006F00022E49360061206E0A380F62274C012067C
:10070000DC781074201206E0D8F974C01206DC22DE
:10071000D203740F0206DCC203740C0206DCC000B4
:10072000C001785079FFD9FED8FAD001D00022005C
:100730000022C000C001780479FFD9FED8FAD001A8
:10074000D00022C000C001C0027A0878FF79FFD92A
:10075000FED8FADAF6D002D001D00022C000C001E3
:10076000C0027A0278FF79FFD9FED8FADAF6D00211
:10077000D001D000222B2D2A2F267C5E215245410C
:10078000445900414E53004D4F4445532053454C6E
:10079000454354494F4E00313A415220323A4C4F72
:1007A0004720333A4144560041524954484D45543C
:1007B000494300386269742D4C4F47494300414416
:1007C00056414E4345204D4F444500202020415284
:1007D0004954484D4554494320202020202041526F
:1007E0004954484D45544943202020202020386258
:1007F00069742D4C4F474943202020202020386227
:1008000069742D4C4F4749432020202020414456F5
:10081000414E4345204D4F44452020202041445621
:10082000414E4345204D4F444520204552524F52A2
:100830003A4F564552464C4F57004552524F523A46
:10084000444956205A45524F004552524F523A4958
:100850004E5055542053495A45004552524F523A32
:100860004D4158203820424954004552524F5200C1
:10087000444556454C4F5045442042593A002020AB
:10088000202020202020202020202020202054480C
:10089000454E204D554E2050494E202020202020EE
:1008A000202054414E20452D4B454E202020202015
:1008B000202020474F48205348414F205345414E68
:1008C0002020202020202020202044414E49454C3B
:0808D00020434845452020208B
:00000001FF
