:1000000002000375815F759000D2B0D2B175A00077
:10001000753100755500755680C200C201C202C21A
:1000200003C20412023A1206C912064912067012DD
:10003000026920980E3004FA1207072098F4120281
:10004000CA80EF120253F530B40A0050222430F572
:1000500030E531B4020AC201E5301203C4020032B5
:10006000C201755401E53012068B0556020032E5D7
:1000700030B4E006120269020032B4E109753101C0
:100080001202A9020032B4E2097531021202A90279
:100090000032B4E3097531031202A9020032B4E45C
:1000A000061202A9020032B4E506120285020032ED
:1000B000B4E606120315020032B4E71FC201743D14
:1000C000F530E531B40207E5301203C48007E530AE
:1000D00012068B05561206C2020032B4E80612035D
:1000E000F8020032B4E90612040B020032B4CB0865
:1000F000C204120347020032B4EA061202070200E9
:1001000032B4D00AC201C204120461020032B4D176
:100110000FC201C204120253F5331204D10200329D
:10012000B4D20DC201C2041202531204A102003261
:10013000B4D30AC201C204120477020032E530B41B
:10014000C0028035B4C1028030B4C202802BB4C377
:10015000028026B4C4028021B4C502801CB4C60249
:100160008017B4C7028012B4C802800DB4C90280DF
:1001700008B4CA028003020032E530B4C819C201D3
:10018000755402745E12068B743212068B05560586
:10019000561206C2020032B4C90885303A75305E84
:1001A0008021B4CA12C201755401747612068B05FF
:1001B000561206C202003285303AC394C09007201E
:1001C00093F530755401300118E531B40207E5307C
:1001D0001203E780217410120687E53012068B8027
:1001E00015D201E531B40207E5301203C48007E5FA
:1001F0003012068B0556E53AB4C7061206C2020055
:10020000321206BB020032E531B4020BE552601532
:10021000155212041E800E120228E554B402031275
:1002200002287554010206BB155674101206877415
:100230002012068B74101206872253890F438920DF
:1002400053877F758DFD758BFD759850C299C29847
:10025000D28E223098FDE599C298F530C2997599F1
:10026000063099FDC299E530227531001206C2743C
:100270000112068774C512068790072812069C1281
:1002800006EE020285753100C201C2041203BD12DE
:1002900006C2740112068790073212069C74C012BF
:1002A000068790074212069C22E53160D8C20112EF
:1002B00003BD7401120687755500755680D204126D
:1002C00002CA74801206870206BB740C120687E508
:1002D00031B4010590077B800BB4020590079B8029
:1002E000039007BBE5822555F582E5833400F5834D
:1002F00074C01206877810E49312068BA3D8F81501
:1003000055E555540FF555E556120687300305742B
:100310000F12068722C2017401120687E531B4026A
:10032000151203BD74411203C4744E1203C47453F6
:100330001203C40206BB748012068790072E1206B1
:100340009C7556830206BBC202C2041206C2740127
:10035000120687748012068790082812069C75582A
:100360000075571075591112038312070720980D55
:10037000D559F40558E5585403F55880E4D20212D3
:1003800002A922E5586015B401059008878010B4D1
:1003900002059008A780089008C78003900867E5C9
:1003A000822557F582E5833400F58374C0120687F1
:1003B0007810E49312068BA3D8F8155722755200D3
:1003C00075530022F530E552B4120122784028F826
:1003D000E530F60552E552C3941040066004F5532B
:1003E000803C7553008037F530E552600A14244094
:1003F000F8E530F612041E22E531B40220E552C3BE
:100400009410401960177553008013E531B4020D44
:10041000E552C3941040066004F5538001227480B5
:100420001206877840E55328F8E552C39553F9B48E
:1004300010028004400279108930E96007E6120654
:100440008B08D9F97410C39530F9E960077420124C
:10045000068BD9F9E530B41001142480F556020654
:1004600087120253C2006002D200120253F5321208
:100470000253F5330204FE120253C2006002D2009E
:10048000120253F532120253F533120253F53B12A6
:100490000253F53C120253F53D120253F53E02059C
:1004A00061F5301206C21206A7E530B401059007C7
:1004B000DB801BB403059007EA8013B404059007A2
:1004C000F9800BB4080590080A800390081A020608
:1004D0009C1206C274C01206877808742012068B1C
:1004E000D8F985333A7808E53A548060047431804D
:1004F00002743012068BE53A23F53AD8EA22120646
:10050000C2853234853335E5344535701474C012F4
:100510000687780F742012068BD8F9743012068B78
:1005200022780012060C2430C0E008E5344535700E
:10053000F28839E830000104F5F07410C395F0F941
:1005400074C0120687E96007742012068BD9F9304F
:100550000005742D12068BA839D0E012068BD8F94D
:10056000221206C28532348533351205D2F53F8515
:100570003B34853C351205D2253FF53F853D34851A
:100580003E351205D2253F2402F53F300002053FDB
:100590007410C3953FF874C0120687E86007742092
:1005A00012068BD8F9300005742D12068B85323473
:1005B0008533351205E9740012068B853B34853C82
:1005C000351205E9740012068B853D34853E3502EF
:1005D00005E9E53445357003740122780012060CF4
:1005E00008E534453570F6E822E534453570057484
:1005F0003002068B780012060C2430C0E008E53487
:10060000453570F2D0E012068BD8F92275360075A8
:1006100037007538007910C3E53533F535E53433E7
:10062000F534E53833F538C3E53733F537E5363398
:10063000F536E538C3940A4005F538433701D9D774
:10064000853634853735E538227430120687120630
:10065000DD743012068774301206877438120687EC
:10066000740C12068774061206877401120687221C
:1006700074401206879008207808E49312068BA332
:10068000D8F87480020687C2A08002D2A0F590C27A
:10069000A1D2A21206DAC2A21206DD22E4936006FB
:1006A00012068BA380F62274C0120687781074207D
:1006B00012068BD8F974C012068722D203740F0277
:1006C0000687C203740C020687C000C00178507907
:1006D000FFD9FED8FAD001D00022000022C000C00D
:1006E00001780479FFD9FED8FAD001D00022C000E9
:1006F000C001C0027A0878FF79FFD9FED8FADAF68D
:10070000D002D001D00022C000C001C0027A02781D
:10071000FF79FFD9FED8FADAF6D002D001D0002254
:100720002B2D2A2F267C5E21524541445900414EF3
:1007300053004D4F4445532053454C454354494F76
:100740004E00313A415220323A4C4F4720333A4121
:1007500044560041524954484D45544943004C4F7A
:100760004749433A20302F31204F4E4C59004144E5
:1007700056414E4345204D4F4445002020204152D4
:100780004954484D455449432020202020204152BF
:100790004954484D455449432020204C4F47494334
:1007A0003A20302F31204F4E4C59204C4F4749436F
:1007B0003A20302F31204F4E4C59202020414456B2
:1007C000414E4345204D4F44452020202041445672
:1007D000414E4345204D4F444520204552524F52F3
:1007E0003A4F564552464C4F57004552524F523A97
:1007F000444956205A45524F004552524F523A49A9
:100800004E5055542053495A45004552524F523A82
:100810004D4158203820424954004552524F520011
:1008200000000001011F0000444556454C4F504553
:10083000442042593A0044414E49454C20434845E2
:100840004500474F48205348414F205345414E00F3
:1008500054414E20452D4B454E005448454E204DA9
:10086000554E2050494E00202020202020202020BE
:1008700020202020202020202044414E49454C208B
:1008800043484545202020202020202020202020D3
:100890002020202020202020474F48205348414F2F
:1008A000205345414E2020202020202020202020A1
:1008B0002020202020202020202054414E20452D83
:1008C0004B454E20202020202020202020202020AA
:1008D0002020202020202020205448454E204D5507
:0708E0004E2050494E20207C
:00000001FF
